:100000000C94DC050C9423060C9423060C94230614
:100010000C9423060C9423060C9423060C942306BC
:100020000C9423060C9423060C9441210C94142266
:100030000C941A180C9423060C9423060C94230693
:100040000C9423060C9423060C9423060C9423068C
:100050000C9423060C9482180C9423060C9423060B
:100060000C9423060C9423060C9423060C9423066C
:100070000C9423060C9423060C9423060C9423065C
:100080000C9423060C9423060C9423060C9423064C
:100090000C9423060C9423060C9423060C9423063C
:1000A0000C9423060C9423060C9423062900350097
:1000B0001E001F0020002100220023002400250034
:1000C000260027002D002E002A002B0014001A0005
:1000D0000800150017001C0018000C001200130087
:1000E0002F00300031000000390004001600070026
:1000F00009000A000B000D000E000F003300340051
:10010000280000000000E1001D001B00060019008F
:10011000050011001000360037003800E5005200DD
:1001200002510000E000E200E30000002C000000AB
:1001300000002C000000AA00A900500051004F0050
:1001400000000100010001000100010001000100A8
:100150000100010001000100010001000100010097
:100160000100010001000100010001000100010087
:100170000100010001000100010001000000010078
:100180000100010001000100010001000100010067
:100190000100010001000100000000000100010059
:1001A0000100010001000100010001000100010047
:1001B0000100010001000100000001000100010038
:1001C000000001000000000001000000010001002B
:1001D000010001000100000000703A003B003C00FB
:1001E0003D003E003F00400041004200A800AA0040
:1001F000A9000100317001001E021F02200221022D
:100200002202230224022502260227022D022E02A8
:100210000100000001001E001F002000210022003C
:10022000230024002500260027002D0001000000E7
:1002300000000100010001000100010001000100B7
:1002400001000100010001000100010001000000A7
:100250000100010001000000010000000000010099
:100260000000010001000100010001000000010088
:100270000100010001000100010001000100010076
:100280000100010001000100010001000100010066
:100290000100010001000100010001000100010056
:1002A0000100010001000100000001000100010047
:1002B0000100010001000100010001000100010036
:1002C0000100010000000000010001000100010028
:1002D0000100010001000100010001000100010016
:1002E0000100010000000100010001000000010008
:1002F00000000000010000000100010001000100F9
:1003000001000000010001000100010001000100E6
:1003100001000100010001000100010001000100D5
:1003200001000100010001000100010001000100C5
:1003300001000100010001000100010001000000B6
:1003400001000100010001000100010001000100A5
:100350000100010001000100010000000000010097
:100360000100010001000100010001000100010085
:100370000100010001000100010000000100010076
:100380000100000001000000000001000000010069
:100390000100010001000100000001000100010056
:1003A0000100010001000100010001000100010045
:1003B0000100010001000100010001000100010035
:1003C0000100010001000100010001000100010025
:1003D0000100010000000100010001000100010016
:1003E0000100010001000100010001000100010005
:1003F00000000000010001000100010001000100F7
:1004000001000100010001000100010001000100E4
:1004100000000100010001000000010000000000D8
:1004200001000000010001000100010001000000C6
:1004300001000100010001000100010001000100B4
:1004400001000100010001000100010001000100A4
:100450000100010001000100010001000100010094
:100460000100010001000100010000000100010085
:100470000100010001000100010001000100010074
:100480000100010001000000000001000100010066
:100490000100010001000100010001000100010054
:1004A0000100010001000000010001000100000046
:1004B0000100000000000100000001000100010037
:1004C0000100010000000100010001000100010025
:1004D0000100010001000100010001000100010014
:1004E0000100010001000100010001000100010004
:1004F00001000100010001000100010001000100F4
:1005000000000100010001000100010001000100E4
:1005100001000100010001000100010000000000D5
:1005200001000100010001000100010001000100C3
:1005300001000100010001000100010000000100B4
:1005400001000100000001000000000001000000A7
:100550000100010001000100010000000100010094
:100560000100010001000100010001000100010083
:100570000100010001000100010001000100010073
:100580000100010001000100010001000100010063
:100590000100010001000000010001000100010054
:1005A0000100010001000100010001000100010043
:1005B0000100000000000100010001000100010035
:1005C0000100010001000100010001000100010023
:1005D0000100000001000100010000000100000016
:1005E0000000010000000100010001000100010005
:1005F00000000100010001000100010001000100F4
:1006000001000100010001000100010001000100E2
:1006100001000100010001000100010001000100D2
:1006200001000100010001000100010000000100C3
:1006300001000100010001000100010001000100B2
:1006400001000100010001000000000001000100A4
:100650000100010001000100010001000100010092
:100660000100010001000100000001000100010083
:100670000000010000000000010000000100010076
:100680000100010001000000010001000100010063
:100690000100010001000100010001000100010052
:1006A0000100010001000100010001000100010042
:1006B0000100010001000100010001000100010032
:1006C0000100000001000100010001000100010023
:1006D0000100010001000100010001000100000013
:1006E0000000010001000100010001000100010003
:1006F00001000100010001000100010001000000F3
:1007000001000100010000000100000000000100E4
:1007100000000100010001000100010000000100D3
:1007200001000100010001000100010001000100C1
:1007300001000100010001000100010001000100B1
:1007400001000100010001000100010001000100A1
:100750000100010001000100000001000100010092
:100760000100010001000100010001000100010081
:100770000100010000000000010001000100010073
:100780000100010001000100010001000100010061
:100790000100010000000100010001000000010053
:1007A0000000000001000000010001000100010044
:1007B0000100000001000100010001000100010032
:1007C0000100010001000100010001000100010021
:1007D0000100010001000100010001000100010011
:1007E0000100010001000100010001000100000002
:1007F00001000100010001000100010001000100F1
:1008000001000100010001000100000000000100E2
:1008100001000100010001000100010001000100D0
:1008200001000100010001000100000001000100C1
:1008300001000000010000000000010000000100B4
:1008400001000100010001000000010001000100A1
:100850000100010001000100010001000100010090
:100860000100010001000100010001000100010080
:100870000100010001000100010001000100010070
:100880000100010000000100010001000100010061
:100890000100010001000100010001000100010050
:1008A0000000000001000100010001000100010042
:1008B0000100010001000100010001000100010030
:1008C0000000010001000100000001000000000024
:1008D0000100000001000100010001000100000012
:1008E0000100010001000100010001000100010000
:1008F00001000100010001000100010001000100F0
:1009000001000100010001000100010001000100DF
:1009100001000100010001000100000001000100D0
:1009200001000100010001000100010001000100BF
:1009300001000100010000000000010001000100B1
:10094000010001000100010001000100010001009F
:100950000100010001000000010001000100000091
:100960000100000000000100000001000100010082
:100970000100010000000100010001000100010070
:10098000010001000100010001000100010001005F
:10099000010001000100010001000100010001004F
:1009A000010001000100010001000100010001003F
:1009B0000000010001000100010001000100010030
:1009C0000100010001000100010001000000000021
:1009D000010001000100010001000100010001000F
:1009E0000100010001000100010001000000010000
:1009F00001000100000001000000000001000000F3
:100A000001000100010001000100000012036B0061
:100A10006500790062006F006100720064000000F0
:100A2000160371006D006B006200750069006C00B8
:100A300064006500720000000403090409026D00EF
:100A4000040100A0FA0904000001030101000921CA
:100A5000110100012240000705810308000A090472
:100A600001000103010200092111010001224D00D2
:100A70000705820308000A090402000103000000C0
:100A80000921110100012236000705830308000A2D
:100A900009040300010300000009211101000122E3
:100AA0003900070584032000011201100100000035
:100AB00008EDFE606001000102000105010906A1C8
:100AC00001050719E029E715002501950875018141
:100AD0000205081901290595057501910295017511
:100AE0000391010507190029F71500250195F875EF
:100AF000018102C005010980A101850216010026BD
:100B000003001A81002A8300751095018100C00539
:100B10000C0901A1018503160100269C021A01009F
:100B20002A9C02751095018100C005010902A101EE
:100B30000901A100050919012905150025019505DF
:100B400075018102950175038101050109300931A3
:100B50001581257F95027508810609381581257F45
:100B6000950175088106050C0A38021581257F95C7
:100B70000175088106C0C005010906A10105071914
:100B8000E029E71500250195087501810295017599
:100B9000088101050819012905950575019102953E
:100BA00001750391010507190029FF150026FF00B3
:100BB000950675088100C00011241FBECFEFDAE052
:100BC000DEBFCDBF04B603FE27C080914F029091D7
:100BD0005002A0915102B09152028730904BA74031
:100BE000B04BD1F410924F02109250021092510269
:100BF0001092520214BE84B7877F84BF0FB6F89458
:100C0000A8958091600088618093600010926000D8
:100C10000FBEE0E0F8E3099511E0A0E0B1E0E0EB01
:100C2000FAE402C005900D92AC33B107D9F722E087
:100C3000ACE3B1E001C01D92AF34B207E1F70E940E
:100C4000901E0C9456250C94000090E080E00895CE
:100C50000895089581E00895089581E008950C9421
:100C60002A060E9480102FEF84E39CE021508040F0
:100C70009040E1F700C000000C94A718FF920F937A
:100C80001F93CF93DF938C01FC01C081D1818091B0
:100C9000760181113FC082818823B9F1CE010E9483
:100CA000E715F82E682FCE010E948D15BE018F2DFD
:100CB0000E94C307EC01B8010E942F06882309F4A3
:100CC0004AC0B801CE010E94F309882309F443C049
:100CD000C531F0E7DF0718F5C23080E7D80708F024
:100CE0004BC0C115E0E7DE0789F1C130D047D1F133
:100CF00081E080933E0180933F01C801DF91CF9155
:100D00001F910F91FF900C942D06CE010E94BC15EF
:100D1000F82ECCCFCE010E94E715BE01C9CFCC334F
:100D200080E7D80709F4ACC0CD33D04709F7F80104
:100D30008281882309F4CBC010923F010E944C1895
:100D400090933D0180933C0180E2A7C0F80182812D
:100D500081110E94310680E0DF91CF911F910F91A8
:100D6000FF900895F80182818823A9F380910E02F3
:100D7000816080930E02EFCFF8018281882309F40D
:100D8000BCCF0E949D17811102C00E947E170E9455
:100D9000BA1790E09093400280933F02FE01E35027
:100DA000F04780913F028160E231F105C8F4E552DD
:100DB000F94F0C940625ED06F906FD060107050717
:100DC00009070D071107150719071D072107250733
:100DD00029072D0731073507390780913F028260C7
:100DE00080933F0280913F020E94BE170E948010B4
:100DF000B2CF80913F028460F3CF80913F02886040
:100E0000EFCF80913F028061EBCF80913F02806203
:100E1000E7CF80913F028064E3CF80913F028068FA
:100E2000DFCF80913F028460EACF80913F028E7FC6
:100E3000D7CF80913F028D7FD3CF80913F028B7FB0
:100E4000CFCF80913F02877FCBCF80913F028F7EB3
:100E5000C7CF80913F028F7DC3CF80913F028F7BB0
:100E6000BFCF80913F028F77BBCF80913F028B7FB6
:100E7000EACF90913F02892F97FB87F98058B0CF36
:100E8000F8018281882361F010923E010E944C1883
:100E900090933D0180933C0182E00E94EA0D5BCF7C
:100EA00080913E0181110FC080913C0190913D01E4
:100EB0000E945818883C910530F486E20E94BF0CCD
:100EC00086E20E949B0D82E00E94F10D44CF80914A
:100ED0003F0181110FC080913C0190913D010E9422
:100EE0005818883C910530F487E20E94BF0C87E2D5
:100EF0000E949B0D80E2E8CF0C94440A279A2F9819
:100F00008FEF9FEF90938700809386008AE0809315
:100F1000800089E1809381000C94451C0E947E072B
:100F20000C94420A282F2F9880918000211108C02C
:100F3000877F8093800010928D0010928C0008951E
:100F4000886080938000233039F48FEF9FEF909377
:100F50008D0080938C00089583E090E0821B9109BE
:100F6000880F991F2FEF3FEF02C0369527958A957E
:100F7000E2F730938D0020938C0008950C942C069A
:100F80000C94BE070895972F70E02FE0929F600D9C
:100F9000711D1124FB019BE4899FE00DF11D1124BB
:100FA000EE0FFF1FE455FF4F859194910895FC01CA
:100FB000EE0FFF1FE45FF54F8591949108950E9415
:100FC000C3070E947209811520E5920708F040C00E
:100FD000811530E4930708F0FAC0883E910518F5B2
:100FE000803E910508F07DC1883A910580F4853AEC
:100FF000910508F087C08130910509F472C120F095
:101000008430910508F06DC190E080E008958D3B3B
:10101000910508F482C0803C9105B0F3805C910991
:101020000E94D7070895811540E2940750F4811576
:1010300021E0920708F055C1803F910528F39065A3
:101040000895811530E3930708F0BEC09F70E8CF84
:10105000811545E5940760F5811524E5920708F0B0
:10106000E5C0811532E5930750F4811541E59407F9
:1010700008F4B0C0982F8827816F906A0895282FB0
:1010800026952695AC01437055278115934508F0A8
:10109000BEC081E090E002C0880F991F4A95E2F738
:1010A00040E2249F90011124822B932B9C68089589
:1010B000803340E7940798F4803220E7920708F0E5
:1010C000BFC0811536E5930708F4B5C09C013056C2
:1010D0009F702115304108F097CF906208958133B9
:1010E00020E7920709F4B3C008F4AEC0823340E7AA
:1010F000940709F4AFC08333904709F085CF80E0AF
:1011000093ED0895853A910509F4A7C0863A9105B3
:1011100009F0A6C082E890E40895883A910509F4A0
:10112000A2C0893A910509F4A1C08A3A910509F44F
:10113000A0C08B3A910509F49FC08C3A910509F43F
:101140009EC08B3B910509F49DC08C3B910509F431
:101150009CC08D3A910509F49BC0803B910509F430
:101160009AC08E3A910509F499C08F3A910509F415
:1011700098C0813B910509F497C0823B910509F421
:1011800096C0833B910509F495C0843B910509F411
:1011900094C0853B910509F493C0863B910509F401
:1011A00092C0873B910509F491C0883B910509F4F1
:1011B00090C0893B910509F48FC08A3B910509F4E1
:1011C0008EC080E094E408959927906C08959F70F4
:1011D000906A08959C0154E0369527955A95E1F759
:1011E000922F9370482F437021E030E002C0220F0D
:1011F000331F4A95E2F73C68392B869586958370B4
:1012000040E2849FC0011124822B932B089581E03A
:1012100090E002C0880F991F4A95E2F740E2249FB0
:1012200090011124822B932B9A680895982F882778
:10123000846F906A0895982F882788279F714DCFD3
:1012400080529047946D089580E091ED089580E07C
:1012500090ED089580E092ED089581E890E408957E
:1012600083E890E4089582EE94E4089589EE94E48E
:1012700008958AEE94E4089585EB94E4089586EB4E
:1012800094E4089583EB94E4089584EB94E4089542
:1012900087EB94E408958CEC94E408958DEC94E449
:1012A000089583E895E408958AE895E4089582E92D
:1012B00095E4089584E995E4089581E296E408951B
:1012C00083E296E4089584E296E4089585E296E444
:1012D000089586E296E4089587E296E408958AE206
:1012E00096E408958238910549F1B0F4813391056F
:1012F00009F45CC048F48932910509F452C08A327D
:10130000910509F458C008958533910509F444C046
:101310008933910599F00895833E910531F138F4B0
:10132000803E910591F0823E9105B1F00895863E90
:10133000910511F1873E910541F1089520913F02F9
:101340002370C9F080EE90E0089520913F0220FFC5
:1013500012C089E390E0089520913F0222FF0BC064
:1013600024FF2EC090E080E0089520913F0222FDEE
:101370002AC024FDF7CF089520913F0223FFFBCF21
:1013800024FDF0CF87EE90E0089520913F0223FFE7
:10139000F0CF86EE90E0089520913F0225FD16C023
:1013A000089520913F0225FD14C0089520913F0229
:1013B00026FD12C0089520913F0226FD10C0089519
:1013C00083EE90E0089582EE90E0089589E290E047
:1013D000089585E390E008958AE290E0089581E31E
:1013E00090E0C9CF08950F931F93CF938C01FB0119
:1013F0008281811106C0C1E08C2FCF911F910F9186
:101400000895C0914D01C11125C00531104799F7CC
:101410000E94F20981E080934D010E944C18909344
:101420004C0180934B0110924001109242011092A6
:101430004101109244011092430110924601109212
:101440004501109248011092470110924A011092F2
:101450004901D2CF80914B0190914C010E945818C4
:10146000883C910540F680914001E82FF0E0EE0FB6
:10147000FF1FEF5BFE4F118300838F5F809340015E
:10148000C0E0BACF0C9428060C942906CF93DF93C2
:1014900085B7806885BF85B7806885BFA2E2B1E067
:1014A00047E251E0C1E0D0E08D91E82FE295EF7086
:1014B000F0E061A18F709E0101C0220F8A95EAF7CA
:1014C000922F9095962391A382A1822B82A34A17F3
:1014D0005B0751F7A3E1B1E061E070E08D91E82F87
:1014E000E295EF70F0E041A18F709B0101C0220FE7
:1014F0008A95EAF7922F9095942391A382A1822B4B
:1015000082A381E0A232B80749F7109259011092E4
:10151000580110924F0110924E0110925B011092EF
:101520005A01109251011092500110925D011092D7
:101530005C01109253011092520110925F011092BF
:101540005E011092550110925401109261011092A7
:1015500060011092570110925601DF91CF910C94C7
:101560008E076F927F929F92AF92BF92CF92DF923F
:10157000EF92FF920F931F93CF93DF93CEE4D1E0CE
:1015800002E211E0EE24E394F12CBB24B394C88072
:10159000D98019821882D8018D918D01E82FE295AA
:1015A000EF70F0E091A18F70970101C0220F8A9532
:1015B000EAF7892F822B81A382A1A22EA0948A21EF
:1015C00082A3B0EABA95F1F783E1682E81E0782E24
:1015D00090E080E0D3017D913D01472F42954F700F
:1015E00050E0DA0190969C90488159817F70D70134
:1015F00002C0AA0FBB1F7A95E2F7BD01692109F06D
:101600006FC0B701082E02C0660F771F0A94E2F779
:10161000462B572B5983488301968F309105D1F67D
:1016200081A18A2181A382A1282B22A3888199816B
:10163000C816D90641F0B09262010E944C189093EE
:101640006401809363012296B1E007321B0709F021
:101650009ECF80916201882391F1809163019091E6
:1016600064010E945818069750F180914E019091A4
:101670004F019093590180935801809150019091AE
:10168000510190935B0180935A0180915201909196
:10169000530190935D0180935C018091540190917E
:1016A000550190935F0180935E0180915601909166
:1016B00057019093610180936001109262010E9432
:1016C0007C0781E0DF91CF911F910F91FF90EF9008
:1016D000DF90CF90BF90AF909F907F906F900895D4
:1016E00070E060E095CFE82FF0E0EE0FFF1FE85AC2
:1016F000FE4F808191810895089590936A018093AF
:1017000069010895E0916901F0916A01309721F033
:101710000190F081E02D099480E00895E091690145
:10172000F0916A01309721F00280F381E02D099455
:101730000895E0916901F0916A01309721F00480E9
:10174000F581E02D09940895209167013091680199
:101750002817390771F09093680180936701E09131
:101760006901F0916A01309721F00680F781E02D40
:101770000994089520916501309166012817390771
:1017800071F09093660180936501E0916901F09199
:101790006A01309721F00084F185E02D09940895C5
:1017A00008950C94D00B0E9443180E94460A0E9490
:1017B00014190C94451C5F926F927F928F929F92A6
:1017C000AF92BF92CF92DF92EF92FF920F931F934F
:1017D000CF93DF93CDB7DEB72A970FB6F894DEBF6D
:1017E0000FBECDBF0E94B10A9CE6A92E91E0B92E92
:1017F00010E000E088248394912C502E802F0E94CA
:10180000730B7C01F501C190D1905F01C816D90618
:1018100009F45EC080910E0281FD0E947C0B90E075
:1018200080E0CE24DF243401082E02C0660C771C31
:101830000A94E2F7960126213721232B09F443C0AD
:101840008E835F82E620F72081E0EF2809F480E0B4
:1018500088870E944C188160782F9A8789874E81EB
:101860005F8168858A850E94950C000F111FF80121
:10187000E459FE4F808191816826792671826082C9
:101880000E94971B0E94820B90916B018917B9F1FE
:101890000E94820B80936B012A960FB6F894DEBFEC
:1018A0000FBECDBFDF91CF911F910F91FF90EF90B1
:1018B000DF90CF90BF90AF909F908F907F906F9070
:1018C0005F900C94C00701968F30910509F0ABCF63
:1018D0000F5F1F4F0530110509F08FCF8FEF898300
:1018E0008A831B820E944C188160782F9D838C8391
:1018F00049815A816B818D810E94950CC1CF2A96B6
:101900000FB6F894DEBF0FBECDBFDF91CF911F9110
:101910000F91FF90EF90DF90CF90BF90AF909F908E
:101920008F907F906F905F900895CF93DF93CDB7A6
:10193000DEB72B970FB6F894DEBF0FBECDBF4F8337
:10194000588769877A878B871E821D8285E0FE0112
:101950003796DE01119601900D928A95E1F7498143
:101960005A816B817C818D819E812B960FB6F89474
:10197000DEBF0FBECDBFDF91CF910C943213882311
:1019800009F4D8C0823871F40E94820B81FDD2C064
:1019900089E30E9487160E944F1789E30E94C416AC
:1019A0000C944F17833859F40E94820B80FDC2C0FB
:1019B00083E50E9487160E944F1783E5EFCF843896
:1019C00059F40E94820B82FDB5C087E40E948716FD
:1019D0000E944F1787E4E2CF9CEF980F913A18F4DA
:1019E0000E948716DDCF90E2980F983050F48770F0
:1019F00091E001C0990F8A95EAF7892F0E94061796
:101A0000CFCF9BE5980F933070F4853A31F0863A4A
:101A100039F083E890E00C94A40B81E890E0FBCFD0
:101A200082E890E0F8CF98E5980F953108F082C0F1
:101A3000883A09F440C0893A09F440C08A3A09F466
:101A400040C08B3A09F440C08C3A09F440C08B3B4B
:101A500009F440C08C3B09F440C08D3A09F440C001
:101A6000803B09F440C08E3A09F440C08F3A09F433
:101A700040C0813B09F440C0823B09F440C0833B35
:101A800009F440C0843B09F440C0853B09F440C0E0
:101A9000863B09F440C0873B09F440C0883B09F409
:101AA00040C0893B09F440C08A3B09F440C090E043
:101AB00080E00C94BA0B82EE90E0FBCF89EE90E0D0
:101AC000F8CF8AEE90E0F5CF85EB90E0F2CF86EB91
:101AD00090E0EFCF83EB90E0ECCF84EB90E0E9CFA8
:101AE00087EB90E0E6CF8CEC90E0E3CF8DEC90E0DC
:101AF000E0CF83E891E0DDCF8AE891E0DACF82E9B8
:101B000091E0D7CF84E991E0D4CF81E292E0D1CFC8
:101B100083E292E0CECF84E292E0CBCF85E292E006
:101B2000C8CF86E292E0C5CF87E292E0C2CF8AE2D8
:101B300092E0BFCF0895882309F44BC0823871F436
:101B40000E94820B81FF45C089E30E9487160E9494
:101B50004F1789E30E94C4160C944F17833859F429
:101B60000E94820B80FF35C083E50E9487160E9489
:101B70004F1783E5EFCF843859F40E94820B82FF20
:101B800028C087E40E9487160E944F1787E4E2CF9F
:101B90009CEF980F913AF0F290E2980F983050F441
:101BA000877091E001C0990F8A95EAF7892F0E940A
:101BB0000C17D2CF9BE5980F933020F490E080E093
:101BC0000C94A40B885A853120F490E080E00C94AA
:101BD000BA0B0895882321F00E9406170C944F1722
:101BE0000895882321F00E940C170C944F17089534
:101BF0008F929F92AF92BF92DF92EF92FF920F93DC
:101C00001F93CF93DF937C01D62FC72FFC01058153
:101C100002950F70128111110E9425170E948016E3
:101C2000D82E882371F0112321F180E28D0F8830A6
:101C300000F182E00E946A160E94801691E0D82E80
:101C4000D926EC2FE295EF70F0E0E75DF14F0C94B0
:101C500006253B0E3B0E8B0E8B0ECD0EE90E680E4D
:101C6000680EF40E680E8C0F8C0FFF0F0810680EB4
:101C70002810D12CE6CF0C2F0F70C07F11F00295E9
:101C8000007F1123A9F0002359F080E28D0F8830E6
:101C900010F0D11109C0802F0E9406170E944F1723
:101CA0008D2F0E94BF0C14C0802F0E941717F6CFF3
:101CB0008D2F0E949B0D002359F080E28D0F8830FC
:101CC00010F0D11124C0802F0E940C170E944F17D2
:101CD000DD2009F4C4C10E945D1680FDC0C1F7017A
:101CE00012820E9457160E94D114C7010E943B1015
:101CF0000E945716DF91CF911F910F91FF90EF90A7
:101D0000DF90BF90AF909F908F900C94F214802F33
:101D10000E941D17DBCFFC2FFF70BF2EC07FC0328B
:101D200019F0B29480EFB822DD2369F0D13029F1A7
:101D3000112369F1002359F0F701858180FFB0CFAD
:101D40008F70858304C0112361F0011104C08B2DB5
:101D50000E94EA0DBDCF8B2D0130D1F70E943917BB
:101D6000B7CF011106C00E943C178B2D0E94F10DC8
:101D7000AFCF013009F4ACCFF6CF112321F00630FC
:101D800008F0A6CFE4CF053008F0A2CFEECF0023B5
:101D900061F38D2F0E949B0D9BCF8C2F869586958E
:101DA000837069F0813009F093CF8D2F9C2F937051
:101DB000111102C090E080E00E94BA0B89CF8D2FF4
:101DC0009C2F9370111102C090E080E00E94A40B40
:101DD0007FCF8D2F112329F00E94A01A0E948C1B07
:101DE00077CF0E94081BFACF8C2F837009F047C071
:101DF00011116ECF2D2F229526952770220F220FBD
:101E00006D2F6F70862E912CB12CA12C022E04C048
:101E1000880C991CAA1CBB1C0A94D2F760E070E0E5
:101E2000CB01D4FF0FC06FE070E080E090E004C011
:101E3000660F771F881F991F2A95D2F760957095B6
:101E400080959095C695C695C370C23051F080F4C8
:101E5000682979298A299B29C13071F00E947A1456
:101E600037CF682979298A299B290E94961430CF77
:101E70000E947A14C501B4010E945E1429CF869590
:101E8000112311F08C2F8170882309F421CF2D2F7D
:101E9000229526952770220F220F6D2F6F70862EA8
:101EA000912CB12CA12C022E04C0880C991CAA1CC8
:101EB000BB1C0A94D2F760E070E0CB01D4FF0FC0E6
:101EC0006FE070E080E090E004C0660F771F881F2D
:101ED000991F2A95D2F76095709580959095C69533
:101EE000C695C370C23051F080F4682979298A29D7
:101EF0009B29C13071F00E945415EACE68297929D6
:101F00008A299B290E947015E3CE0E945415C501B1
:101F1000B4010E943815DCCEE0E2ED0FE53108F0A7
:101F200062C0F0E0EA56F04F0C940625AB0FAB0F01
:101F3000AB0FAB0FAB0FAB0FAB0FAB0FAB0FAB0FD1
:101F4000AB0FAB0FAB0FAB0FAB0FAB0FB80FC60F99
:101F5000CD0FD40FDE0FDF708C2F8F71112321F086
:101F60000E94D1148D2FF4CE0E94F2148D2FFECE3C
:101F7000112341F0053008F0ABCE8C2F8F710E94F9
:101F80001715A6CE063008F0A3CEF7CF8C2F8F7191
:101F9000112339F00E94D1149BCE8C2F8F71112305
:101FA000C9F30E94F21494CE112329F08C2F8F7163
:101FB0000E94BC148DCE0E94B2148ACE112349F027
:101FC000CF718C2F0E94D11463E08C2F0E94611678
:101FD0007FCE81E00E946A16023008F479CE82E05A
:101FE0000E946A1675CE112329F0011159CE8C2F4B
:101FF0008F71D0CF0111CDCE8C2F8F71D2CF4C2FBE
:102000004F706D2FC7010E9425060E94DB1360CE22
:1020100011115ECECF70C230A9F040F4CC2379F01C
:10202000C13009F055CE0E946E1C52CEC33069F00B
:10203000C43009F04DCE8D2F0E94BD1C49CE0E94A8
:10204000561C46CE0E94871C43CE0E949A1C40CE4E
:102050004C2F4F706D2FC7010E94C20739CEDF9100
:10206000CF911F910F91FF90EF90DF90BF90AF90B5
:102070009F908F9008950F931F93CF93DF93EC0160
:10208000988189812B813C81232B39F08F3F19F472
:1020900081E09F3F19F080E001C081E080FD17C022
:1020A000CE010E943E06882391F0688179818A8161
:1020B0000E9433168C010E948C150E945314B801A3
:1020C000CE01DF91CF911F910F910C94F80DDF910C
:1020D000CF911F910F9108950E9425170E943617E6
:1020E0000E94F8160E944F170E94391C0E948C1BF8
:1020F00090E080E00E94A40B90E080E00C94BA0B8A
:102100000E9414170C946C100E942916E92FE29576
:10211000EF70E250EE30E0F4F0E0EF56FF4E0C943A
:1021200006259F109F10A810A810AA10A810A8108C
:10213000A8109F109F10AF10A810A810AF10803FDC
:1021400019F020F4803E20F481E00895843FE1F30B
:1021500080E00895803EC0F3813FD1F7F5CF93FB37
:10216000882780F90895CF93DF9300D000D01F9285
:10217000CDB7DEB70F900F900F900F900F90DF91BB
:10218000CF910895CF93DF9300D000D000D0CDB78A
:10219000DEB726960FB6F894DEBF0FBECDBFDF9137
:1021A000CF9108951F93CF93DF93C091770116E0ED
:1021B000809178018C1304C0DF91CF911F91089515
:1021C000D0E01C9FF0011D9FF00D1124E758FE4F39
:1021D0004081518162817381848195810E94C21006
:1021E0002196C770E5CF4091A9015091AA01609155
:1021F000AB017091AC018091AD019091AE010C9456
:10220000C2101F93CF93DF938091AE01807FD1F4F2
:102210008091AB018823B1F080917701D091780152
:10222000B091A901C091AA014091AC015091AD01BA
:10223000A1E0BF3F09F0A0E0BA016095709516E0FB
:10224000D81304C0DF91CF911F91089521E041156B
:10225000510521F02A2FCF3F09F020E090E020FD2A
:1022600038C0189FF001199FF00D1124E758FE4F58
:1022700021812C132EC020812B132BC022812111F0
:1022800028C0238134812417350700F1241B350B26
:10229000283C3105F0F42091AE012F70206120938D
:1022A000AE0126E0289FF001299FF00D1124E2588D
:1022B000FE4F80818F708061808389EA91E00E9467
:1022C0003B10DF91CF911F910C94D210260F371F36
:1022D000DFCF01968770B4CFAF92BF92CF92DF92DB
:1022E000EF92FF920F931F93CF93DF93CDB7DEB79B
:1022F00061970FB6F894DEBF0FBECDBF8C0185E0AD
:10230000F801DE011D9601900D928A95E1F7D80142
:102310004C9111965C9111971296EC903091A90115
:102320006091AA018091AC019091AD0121E00097EC
:1023300031F06F3F19F421E03F3F09F020E0B22F68
:10234000B170BB2E20FD80C1F801C380D480A09065
:10235000AB01AA2009F427C1C816D906D0F1D601CD
:10236000A81BB90BCD01FF24F394883C910508F01C
:10237000F12C8091AE01982F907FFF2009F4CAC004
:10238000911187C0FE2C651329C0341327C0E110BA
:1023900025C08F7080618093AE010E94F31089EA9E
:1023A00091E00E943B108091AE01F80185838F2D52
:1023B00061960FB6F894DEBF0FBECDBFDF91CF910F
:1023C0001F910F91FF90EF90DF90CF90BF90AF9053
:1023D0000895809590958C0D9D1DC5CF81E0CD28E9
:1023E00031F05F3F19F481E04F3F09F080E080FD5C
:1023F00024C081E08E25F82FF170DF2E80FF3FC0D2
:10240000809177012091780136E0821318C04D87C2
:102410005E878D859E850E942916292F22952F7013
:10242000223008F1243030F59F7009F1D80115965B
:102430009C91907FE1F4FB2CBACF80E0DCCF90E060
:10244000389FF001399FF00D1124E758FE4F61814C
:10245000561306C06081461303C062816E110FC01F
:1024600001968770D2CF9F7011F0882321F3805E90
:10247000883008F3C8010E943B10BD2CDCCFEE2051
:1024800009F495CF8091AE0181608093AE01F12C6B
:102490008ECF651312C0341310C0E1100EC0F801C6
:1024A0008583C8010E943B1086E0F801A9EAB1E0EB
:1024B00001900D928A95E1F741C04D875E878D8529
:1024C0009E850E948410882309F4C8C0EE2009F478
:1024D000C5C08091AE01803270F02091A901309189
:1024E000AA0138872F831986DB86CA868C87CE019E
:1024F00007960E943B1086E0F801A9EAB1E001903E
:102500000D928A95E1F70E9401110E94F310FF24B9
:10251000F3944DCF911115C07C2DD98AC88A6E2DA8
:1025200089890E94B31089EA91E00E943B1086E0FD
:10253000E9EAF1E0DF011D928A95E9F70E94F310C4
:1025400036CF651312C0341310C0E1100EC0F8016D
:102550008583C8010E943B10E9EAF1E086E0DF01D3
:102560001D928A95E9F7FA2C22CF4D875E878D85DB
:102570009E850E948410882309F470C0EE2009F41F
:102580006DC08091AE01803208F4B5CF2091A901D1
:102590003091AA013A8329831B82DD82CC828E830B
:1025A000CE010196A6CFC816D90638F1F601E81B70
:1025B000F90BCF01F12C883C910508F03DC0FE2CB1
:1025C000EE2009F44BC0651326C0341324C080915B
:1025D000AE0180FD17C0982F907FA1F0D80115960D
:1025E0008C931597903F09F45CCF982F907F905F64
:1025F0008F70892B15968C9354CF809590958C0D68
:102600009D1DD8CF86E0F801A9EAB1E001900D92B6
:102610008A95E1F7CCCE4D875E878D859E850E9499
:102620008410811168CF8091AE0181608093AE01EA
:10263000C8010E943B10BBCE7C2DD98AC88A6E2D62
:1026400089890E94B31073CFEE2041F04D875E87D9
:102650008D859E850E94841081114DCFC8010E94F6
:102660003B1055CF1F93CF93DF93CDB7DEB72C9799
:102670000FB6F894DEBF0FBECDBF4F835887698772
:102680007A878B879C87CE0107960E946C118823DE
:1026900009F442C09F8188852A853B85232B39F028
:1026A0008F3F19F481E09F3F19F080E001C081E085
:1026B00080FD08C04F81588569857A858B859C850A
:1026C0000E94C21016E080917701909178018917DD
:1026D00009F467C0819FC001112487589E4F0E9452
:1026E0006C11882309F45DC0E09177011E9FF00111
:1026F0001124E758FE4F40815181628173818481AA
:1027000095810E94C2108091770190E001968770B8
:10271000992780937701D7CF86E0FE013796DE01B7
:10272000119601900D928A95E1F79F8188852A85FF
:102730003B85232B39F08F3F19F481E09F3F19F03F
:1027400080E001C081E080FDBDCF2091780130E0C4
:10275000C90101968770992740917701481719069A
:1027600099F096E0929FD001939FB00D1124A75845
:10277000BE4FFE01319601900D929A95E1F780933C
:1027800078010E94D2109ECF0E9480101092780192
:102790001092770186E0E9EAF1E0DF011D928A9567
:1027A000E9F72C960FB6F894DEBF0FBECDBFDF91D0
:1027B000CF911F910895EF92FF920F931F93CF93A4
:1027C000DF938C01892B81F0F12CEE24E394E80156
:1027D0002196F8018491843770F4843008F05FC04A
:1027E0008130B1F08230A1F1DF91CF911F910F9133
:1027F000FF90EF900895853709F44CC008F43DC070
:102800009CE7980F903780F78F770E949B0D49C007
:102810000E5F1F4FFE01849190E2980F983060F494
:102820008770FE2D01C0FF0F8A95EAF78F2F0E9457
:1028300028170E944F1702C00E94BF0C8F2D815095
:1028400030F2EFE9FFE03197F1F700C00000F7CF79
:102850000E5F1F4FFE01849190E2980F983050F464
:102860008770FE2D01C0FF0F8A95EAF78F2F0E9417
:102870002E17DFCF0E949B0DE1CF0E5F1F4FFE0191
:10288000C491C150D8F28FE99FE00197F1F700C0E1
:102890000000F7CF0E5F1F4FFE01F490CFCF0E94D4
:1028A000BF0C8E01CBCF08956093E5017093E601D4
:1028B0008093E7019093E8010C946C100F931F93A1
:1028C0000091E5011091E6012091E7013091E801C6
:1028D000DC01CB01802B912BA22BB32B8093E50144
:1028E0009093E601A093E701B093E8011F910F9147
:1028F0000C946C100F931F930091E5011091E60169
:102900002091E7013091E801DC01CB018023912384
:10291000A223B3238093E5019093E601A093E701FE
:10292000B093E8011F910F910C946C100F931F93BB
:102930000091E5011091E6012091E7013091E80155
:10294000DC01CB0180279127A227B3278093E501E3
:102950009093E601A093E701B093E8011F910F91D6
:102960000C946C101092E1011092E2011092E301BC
:102970001092E4010C946C1041E050E060E070E0D3
:1029800004C0440F551F661F771F8A95D2F74093E6
:10299000E1015093E2016093E3017093E4010C9430
:1029A0006C1041E050E060E070E004C0440F551F3F
:1029B000661F771F8A95D2F78091E1019091E2011D
:1029C000A091E301B091E401842B952BA62BB72BAA
:1029D0008093E1019093E201A093E301B093E401BD
:1029E0000C946C1041E050E060E070E004C0440FD3
:1029F000551F661F771F8A95D2F7409550956095B1
:102A000070958091E1019091E201A091E301B09174
:102A1000E40184239523A623B7238093E1019093B7
:102A2000E201A093E301B093E4010C946C1041E047
:102A300050E060E070E004C0440F551F661F771F30
:102A40008A95D2F78091E1019091E201A091E30192
:102A5000B091E40184279527A627B7278093E10149
:102A60009093E201A093E301B093E4010C946C1005
:102A70000F931F930091E1011091E2012091E30176
:102A80003091E401DC01CB01802B912BA22BB32BE5
:102A90008093E1019093E201A093E301B093E401FC
:102AA0001F910F910C946C100F931F930091E101F3
:102AB0001091E2012091E3013091E401DC01CB01AE
:102AC00080239123A223B3238093E1019093E20119
:102AD000A093E301B093E4011F910F910C946C104B
:102AE0000F931F930091E1011091E2012091E30106
:102AF0003091E401DC01CB0180279127A227B32785
:102B00008093E1019093E201A093E301B093E4018B
:102B10001F910F910C946C1008952FE0929F800DDF
:102B20001124982F977071E001C0770F9A95EAF7FA
:102B300086958695869525E0829FC001112450E0F8
:102B400040E0A62FB0E0FC01E40FF51FE155FE4F79
:102B500060819D01042E02C0369527950A94E2F704
:102B60002170219526272723262720834F5F5F4F3B
:102B70004530510541F708952FE0929F800D1124B3
:102B8000982F977086958695869525E0829FA0015F
:102B9000112470E060E080E0FA01E60FF71FE155D4
:102BA000FE4F208130E0092E02C0369527950A9409
:102BB000E2F721703327062E01C0220F0A94EAF7AC
:102BC000822B6F5F7F4F6530710531F70895BF929B
:102BD000CF92DF92EF92FF920F931F93CF93DF93E9
:102BE0008C01C090E101D090E201E090E301F0900F
:102BF000E4018091E5019091E601A091E701B09197
:102C0000E801C82AD92AEA2AFB2ACFE1D0E0BC2E63
:102C1000D701C6010C2E04C0B695A7959795879548
:102C20000A94D2F780FD0EC0219788F7B12C8B2D26
:102C3000DF91CF911F910F91FF90EF90DF90CF9098
:102C4000BF900895B8018C2F0E94DF07019761F3B0
:102C5000EECFCF93DF93EC010E94E715BE01DF9129
:102C6000CF910C94DF071F93CF93DF93EB019091EB
:102C70007601992331F0CB01DF91CF911F910C9414
:102C80002916882379F0CB010E94E715182F682FA9
:102C9000CE010E948D15BE01812FDF91CF911F9132
:102CA0000C94DF07CB010E94BC15182FF4CF809144
:102CB000E90185958595859508958091E90187704D
:102CC000089598E0899F90011124622B6093E90197
:102CD0000C94D1149091E901809589238093E901A6
:102CE000282F277061F4282F082E000C330B921721
:102CF000130629F08595859585950C94F214089511
:102D00009091E901977081E009F480E00895909135
:102D100012019923E1F090913F0297FF18C0E82F2C
:102D2000E695E695E695EF3139F120910001309175
:102D30000101E20FF32FF11D877021E030E001C0A7
:102D4000220F8A95EAF78181822B81830895209151
:102D5000000130910101F90132969FEF40E051915D
:102D6000851751F09F3F19F4511101C0942F4F5F07
:102D70004E31A9F79F3F09F40895290F311D97FDA2
:102D80003A95F90182830895909112019923F1F007
:102D900090913F0297FF1AC0E82FE695E695E695D9
:102DA000EF3129F12091000130910101E20FF32F61
:102DB000F11D282F277081E090E001C0880F2A952F
:102DC000EAF78095918189238183089520910001FC
:102DD00030910101F9013296205E3F4F91918913A4
:102DE00003C0DF0111971C92E217F307B9F70895AA
:102DF00081E090E0E0910001F0910101E80FF91FFE
:102E00001082019680329105A9F7089590910D02E4
:102E1000892B80930D020895982F909580910D0233
:102E2000892380930D02089510920D0208959091C8
:102E30000C02892B80930C020895982F9095809115
:102E40000C02892380930C02089510920C020895BD
:102E500090910B02892B80930B020895982F9095E7
:102E600080910B02892380930B02089510920B022C
:102E700008958093EA0108951092EA01089520913F
:102E8000000130910101F9013196205E3F4F80E051
:102E9000919191118F5FE217F307D1F70895E091B7
:102EA0000001F091010180910D028083E091000109
:102EB000F0910101808190910C02892B8083E09137
:102EC0000001F0910101808190910B02892B808398
:102ED0009091EA01992361F0E0910001F0910101E4
:102EE0008081892B80830E943F1781111092EA0113
:102EF00080910001909101010C948E0B6DEE7EEF9C
:102F000090E080E00E94402560E082E090E00E9436
:102F10002E2560E083E090E00E942E2560E084E0B2
:102F200090E00E942E2560E085E090E00E942E2532
:102F300060E086E090E00C942E2590E080E00E9416
:102F4000282521E08D3E9E4F09F020E0822F089534
:102F500082E090E00C942025682F82E090E00C94B1
:102F60002E2583E090E00C942025682F83E090E0EC
:102F70000C942E2584E090E00C942025682F84E0AA
:102F800090E00C942E2586E090E00C942025682F8C
:102F900086E090E00C942E2580914602843051F119
:102FA00010920F0288E190E020E40FB6F894A89503
:102FB000809360000FBE2093600080E00E94920723
:102FC00080E00E94C00783B7817F846083BF83B79E
:102FD000816083BF7894889583B78E7F83BF0FB657
:102FE000F894A895809160008861809360001092A9
:102FF00060000FBE089508950895CF930E94FB17B7
:103000000E94B10A0E94FC17C0E08C2F0E94730B33
:10301000892B31F4CF5FC530C1F780E0CF9108959F
:1030200081E0FCCF0E9480100E94451C0E94820B10
:103030000C94C0071F920F920FB60F9211248F931A
:103040009F93AF93BF9380910F02811113C0809122
:103050003B0290913C02A0913D02B0913E0241960C
:10306000A11DB11D80933B0290933C02A0933D02B1
:10307000B0933E02BF91AF919F918F910F900FBE81
:103080000F901F90189582E084BD93E095BD9AEF54
:1030900097BD80936E0008952FB7F89480913B02FE
:1030A00090913C02A0913D02B0913E022FBF089545
:1030B000CF92DF92EF92FF920F931F932FB7F89466
:1030C00040913B0250913C0260913D0270913E0262
:1030D0002FBF6A017B01EE24FF248C0130E020E049
:1030E000C016D106E206F30650F0481B590BCA0180
:1030F0001F910F91FF90EF90DF90CF900895415076
:103100005109F3CF1F920F920FB60F9211248F9394
:103110009F93AF93BF9380913B0290913C02A0910B
:103120003D02B0913E020196A11DB11D80933B026C
:1031300090933C02A0933D02B0933E02BF91AF91A9
:103140009F918F910F900FBE0F901F9018950E9426
:10315000C620F8942FEF87EA91E6215080409040F6
:10316000E1F700C0000087E090EBDC0180934F02A4
:1031700090935002A0935102B093520288E19CE0D8
:103180000FB6F894A895809360000FBE90936000EE
:10319000FFCFAF92BF92CF92DF92EF92FF920F9349
:1031A0001F93CF93C0E0CC24C394D12CE82EF12CF4
:1031B0008C2F0E94730B5C0110E000E0C601002E12
:1031C00002C0880F991F0A94E2F78A219B21892B5C
:1031D00099F40F5F1F4F0F30110581F7CF5FC53096
:1031E00039F780E0CF911F910F91FF90EF90DF9022
:1031F000CF90BF90AF900895602F7C2F80E00E9409
:10320000C307E816F90629F781E0ECCFCF93C82F62
:103210008CE20E94C918882321F08C2FCF910C9446
:10322000C91880E0CF910895CF930E949D17811116
:1032300002C00E947E17C5E608C00E94B10A8FE353
:103240009CE90197F1F700C00000C150B1F789E295
:103250000E9406198111EFC08AE20E9406198111AD
:103260000E947E1785E00E94061981110E94A7180E
:103270000E94A81780930E0287E00E9406198823F7
:1032800071F08BE10E940619882309F4B1C0909176
:103290000E02892F8D7F91FF826080930E028091B4
:1032A0000E020E94AC170E94BA1790E09093400261
:1032B00080933F0280EE0E940619882341F090918E
:1032C0003F02892F8E7F90FF816080933F0289E3C8
:1032D0000E940619882341F090913F02892F8D7F2B
:1032E00091FF826080933F0282EE0E94061988233C
:1032F00041F090913F02892F8B7F92FF84608093F1
:103300003F0286EE0E940619882341F090913F0209
:10331000892F877F93FF886080933F0283EE0E940E
:103320000619882341F090913F02892F8F7E94FFE8
:10333000806180933F0285E30E940619882341F053
:1033400090913F02892F8F7D95FF806280933F028D
:1033500081E30E940619882341F090913F02892F52
:103360008F7B96FF806480933F0281E10E94061963
:10337000882341F090913F02892F97FB87F980586D
:1033800080933F0280913F020E94BE1787E20E9415
:103390000619C82F8EE10E9406198111C2608FE1C3
:1033A0000E9406198111C46080E20E9406198111F1
:1033B000C86081E20E9406198111C06182E20E9408
:1033C00006198111C06283E20E9406198111C0644E
:1033D00084E20E940619882341F1C0688C2F0E9464
:1033E000B5176C2F70E090E080E0CF910C945414EE
:1033F0008EE00E940619882339F090910E02892FE1
:103400008B7F92FF846049CF80E10E9406199091E2
:103410000E02882329F0892F877F93FF88603DCF94
:10342000892F8E7F90FF816038CFC111D7CF0E9446
:10343000B117682FD7CFCF9108958091120280FFE6
:1034400012C06091050185E0689FB0011124759557
:1034500067957595679560387105A8F561157105D3
:10346000A1F1862F089581FF09C06091050185E0D3
:10347000689FB001112475956795EDCF82FF07C055
:103480006091050185E0689FB0011124E4CF20918F
:1034900013022223A9F0909104016091050185E0B7
:1034A000689FB00111242917B0F6269FA001279F1D
:1034B000500D1124692F70E0CA010E94F224CBCF75
:1034C00065E070E0CECF8FE7089581E008958091A8
:1034D000120280FF0CC06091030170E07595679542
:1034E000759567956115710549F1862F089581FFDE
:1034F00006C06091030170E075956795F3CF609108
:10350000030182FD0BC0909113029923A1F06091F9
:10351000020180910301961738F0682F70E060383F
:10352000710500F38FE70895899FC001112470E0B1
:103530000E94F224F4CF61E070E0D7CF81E00895DB
:10354000803F31F40E941D1A8195809316020895E0
:10355000813F19F40E941D1AF8CF823F31F40E9476
:103560001D1A8195809315020895833F19F40E94D6
:103570001D1AF8CF893F29F40E94671A8093170219
:1035800008958A3F21F40E94671A8195F7CF8B3FF7
:1035900031F40E94671A81958093180208958C3F38
:1035A00019F40E94671AF8CF843F31F48091140215
:1035B0008160809314020895853F21F48091140264
:1035C0008260F7CF863F21F4809114028460F1CFAE
:1035D000873F21F4809114028860EBCF883F21F46B
:1035E000809114028061E5CF8D3F31F48091120209
:1035F00081608093120208958E3F21F4809112021F
:103600008260F7CF8F3FB9F7809112028460F1CFCB
:10361000803FC1F48091160287FD109216028091BE
:10362000150281110EC08091160281110AC080918D
:103630001702811106C080911802811102C01092F8
:1036400013020895813F29F48091160218162CF375
:10365000E6CF90911502823F29F497FFE0CF1092B8
:103660001502DDCF833F19F41916CCF3D8CF893F6B
:1036700039F480911702181694F610921702CFCFE2
:103680008A3F29F48091170287FFC9CFF6CF8B3F7D
:1036900039F48091180287FFC2CF10921802BFCF71
:1036A0008C3F29F4809118021816BCF3B8CF843FE0
:1036B00031F4809114028E7F80931402B0CF853F45
:1036C00021F4809114028D7FF7CF863F21F4809101
:1036D00014028B7FF1CF873F21F480911402877F02
:1036E000EBCF883F21F4809114028F7EE5CF8D3F90
:1036F00031F4809112028E7F8093120290CF8E3F20
:1037000021F4809112028D7FF7CF8F3F09F087CF90
:10371000809112028B7FF0CF84E192E00E94990B9E
:103720000E944C18909311028093100208951F93E9
:10373000CF93DF9380911002909111020E9458184C
:10374000AC01909113022091060130E0911106C066
:10375000209107018AE0289F900111244217530706
:1037600080F080911502C091160210911702D0913D
:10377000180281110AC0C11178C0111176C0D1118F
:1037800074C0DF91CF911F9108959F3F19F09F5F03
:1037900090931302181624F40E941D1A80931502A8
:1037A0008091150287FF05C00E941D1A81958093A4
:1037B00015021C1624F40E941D1A80931602809193
:1037C000160287FF05C00E941D1A8195809316027C
:1037D00060911502662331F1C0911602CC2311F1DC
:1037E000062E000C770B880B990B0E94F92323E31C
:1037F00033E343E35FE30E945D240E94C1236093AF
:1038000015026C2FCC0F770B880B990B0E94F923B4
:1038100023E333E343E35FE30E945D240E94C1237B
:1038200060931602111624F40E94671A80931702FF
:103830008091170287FF05C00E94671A81958093C7
:1038400017021D1624F40E94671A809318028091B3
:10385000180287FF05C00E94671A8195809318029D
:10386000DF91CF911F910C948C1B9F3F09F08FCF5C
:10387000A0CF85E0E4E1F2E0DF011D928A95E9F74F
:10388000109213021092120208950E949D17811146
:1038900002C00E947E170E94C3178093410280FFDE
:1038A00003C086950C94920780E0FCCF8091410282
:1038B000982F9695933030F49F5F990F8170892BE4
:1038C00080934102809141028160809341020E9475
:1038D000C7178091410286950C949207809141020E
:1038E000982F9E7F79F08250809341028E7F91E0E5
:1038F00009F490E08091410290FB80F980934102AD
:103900000E94C7178091410286950C94920790916E
:103910004102892F8E7F90FF8160809341020E9437
:10392000C7178091410280FF03C086950C949207CF
:1039300080E0FCCF90914102892F86958F5F8F7731
:1039400091708430B8F4880F892B80934102809164
:1039500041028E7F91E009F490E08091410290FB5A
:1039600080F9809341020E94C71780914102869599
:103970000C94920790934102EACF90914102292F33
:1039800026958227880F9170982B909341029E7FF5
:1039900021E009F420E08091410220FB80F980932E
:1039A00041020E94C7178091410286950C949207AC
:1039B000809139020895CF93DF9300D01F92CDB745
:1039C000DEB79C0180914602843019F593E099831B
:1039D0003B832A839093E9008FEF9091E800815018
:1039E00095FD06C095ED9A95F1F700008111F5CF90
:1039F0008091E80085FF0DC050E040E063E070E09A
:103A0000CE0101960E94361F8091E8008E77809348
:103A1000E8000F900F900F90DF91CF910895CF9312
:103A2000DF9300D01F92CDB7DEB72091460224303D
:103A300031F522E02983805891099B838A8383E0B2
:103A40008093E9008FEF9091E800815095FD06C0CA
:103A500095ED9A95F1F700008111F5CF8091E8007E
:103A600085FF0DC050E040E063E070E0CE010196BC
:103A70000E94361F8091E8008E778093E8000F90B7
:103A80000F900F90DF91CF9108959C018091460295
:103A90008430F9F482E08093E9009FEF8091E800A0
:103AA000915085FD06C085ED8A95F1F700009111D2
:103AB000F5CF8091E80085FF0CC050E040E065E064
:103AC00070E0C9010E94361F8091E8008E778093D4
:103AD000E8000895CF93DF93EC0180914602843093
:103AE000F1F4909112019923E9F090913F0297FF30
:103AF00019C08093E9008FEF9091E800815095FD07
:103B000006C095E19A95F1F700008111F5CF8091FB
:103B1000E80050E040E060E270E085FD1AC0DF910F
:103B2000CF91089581E08093E9008FEF9091E800B4
:103B3000815095FD06C095ED9A95F1F70000811131
:103B4000F5CF8091E80085FFEACF50E040E068E0E3
:103B500070E0CE010E94361F8091E8008E7780933E
:103B6000E80080E2FE01A9E1B2E001900D928A95A1
:103B7000E1F7D5CF80914502811109C00E94C6208E
:103B80000E9423218091E20084608093E2000895E6
:103B9000109245020895089508950C94121842E079
:103BA00061EC81E00E94442042E061EC82E00E94EE
:103BB000442042E061EC83E00E94442042E261EC58
:103BC00084E00C94442080914802833009F455C06D
:103BD00030F4813071F1823009F491C008958A3057
:103BE00009F47DC08B3009F463C0893009F044C00A
:103BF00080914702813209F03FC080914B02909141
:103C00004C02009711F00397B9F58091E800877F87
:103C10008093E8008091E80082FF2AC08091F10043
:103C2000809339028091E8008B778093E8000C94B0
:103C3000782080914702813AF9F48091E800877FEB
:103C40008093E80080914B0290914C02892B61F4A3
:103C500060E289E192E070E00E94851F8091E800B7
:103C60008B778093E800089560E090E080E0F3CFE8
:103C7000809146028111CECF089580914702813A0A
:103C8000D9F780914B0290914C02892BA9F7809132
:103C9000E800877F8093E8008091E80080FFFCCFF8
:103CA000809112018093F1008091E8008E77BDCF62
:103CB00080914702813201F780914B0290914C0232
:103CC000892BD1F68091E800877F8093E8000E94DD
:103CD000782080914902809312010C948010809189
:103CE0004702813249F68091E800877F8093E8009F
:103CF0000E94782080914A0280933A020895809130
:103D00004702813A09F0B8CF8091E800877F80931D
:103D1000E8008091E80080FFFCCF80913A02C2CF9A
:103D200084B7877F84BF0FB6F894A8958091600010
:103D3000886180936000109260000FBE80E88093DD
:103D40006100109261000E94D10B0E94C6200E9467
:103D500023218091E20084608093E20078940E94A5
:103D6000A5230E94D30B88E091E00E947D0B8091F7
:103D70004602853019F00E94DB0BF9CF0E94CC1768
:103D800080914402882399F30E94FD17882379F3D8
:103D90000E94201FECCF292F33272330310579F1E2
:103DA00058F421303105F1F02230310519F190E05D
:103DB00080E030E020E01AC02132310599F1223252
:103DC0003105A9F7643098F770E0FB01EE0FFF1F93
:103DD000E55DFE4F20813181695D7E4FFB01808171
:103DE00090E004C082E190E029EA3AE0FA013183F0
:103DF000208308958DE690E02CE33AE0F7CF9927F1
:103E00008130910561F028F0029789F6ECE0FAE044
:103E100002C0E8E3FAE0849190E09F01E7CFE0E29E
:103E2000FAE0F9CF643008F0C2CFE62FF0E0EE0FF1
:103E3000FF1FED5CFE4F2081318189E090E0D6CFFD
:103E400080E189BD82E189BD09B400FEFDCF80918A
:103E5000D8008F7D8093D8008091E00082608093AD
:103E6000E0008091E00081FDFCCF0895AF92BF9209
:103E7000CF92DF92FF920F931F93CF93DF936C014A
:103E8000EB018A010E949720F82E811123C00115B1
:103E9000110539F0F80180819181C81BD90BC80E3A
:103EA000D91EB12CA12C2097A9F08091E80085FDA6
:103EB00022C08091E8008E778093E80001151105FB
:103EC000A1F0F80180819181A80EB91EB182A08273
:103ED00085E0F82E8F2DDF91CF911F910F91FF90EC
:103EE000DF90CF90BF90AF9008950E9497208823D5
:103EF000D1F2F82EEFCFF60181916F018093F1009E
:103F00002197FFEFAF1ABF0ACECFFC0180914D027F
:103F100090914E0286179707A0F06115710529F45C
:103F20009091E8009E779093E80090E0611571050C
:103F300051F4911108C08091E80082FF35C080E003
:103F40000895BC01F2CF809146028823C9F18530E3
:103F5000C9F18091E80083FD31C08091E80082FDC5
:103F6000EACF8091E80080FFE1CF2091F3008091BB
:103F7000F200322F282F6115710519F02830310514
:103F800058F091E02830310509F090E02091E800E8
:103F90002E772093E800CACF81918093F100615081
:103FA00071092F5F3F4FE7CF80914602882341F090
:103FB000853041F08091E80083FFBDCF81E0089516
:103FC00082E0089583E00895FC0180914D02909174
:103FD0004E0286179707A0F06115710529F48091AC
:103FE000E8008E778093E80090E06115710551F448
:103FF000911108C08091E80082FF36C080E00895EA
:10400000BC01F2CF809146028823D1F18530D1F1F5
:104010008091E80083FD32C08091E80082FDEACF04
:104020008091E80080FFE1CF2091F3008091F200C1
:10403000322F282F6115710519F02830310558F0FD
:1040400091E02830310509F090E08091E8008E770A
:104050008093E800CACF84918093F100319661503B
:1040600071092F5F3F4FE6CF80914602882341F0D0
:10407000853041F08091E80083FFBCCF81E0089556
:1040800082E0089583E00895982F973028F08F708C
:104090008093E90081E008959093E900242F762F22
:1040A00050E0981731F07091EC002091ED005091A4
:1040B000F00021FD02C09F5FE8CF3091EB003E7F12
:1040C0003093EB003091ED003D7F3093ED00309167
:1040D000EB0031603093EB007093EC002093ED0027
:1040E0005093F0002091EE0027FDE5CF80E0089589
:1040F0008091470287FF13C08091E80082FF06C0CD
:104100008091E8008B778093E80004C0809146029C
:104110008111F2CF0895809146028823D9F38091CE
:10412000E80080FFF8CF8091E8008E77ECCF2091F7
:10413000E4003091E50085E69091EC0090FF06C028
:104140009091E80090FF06C080E008959091E8000B
:1041500092FDFACF90914602992391F0953091F01B
:104160009091EB0095FD10C04091E4005091E50066
:104170002417350709F381509A01F1F684E0089578
:1041800082E0089583E0089581E008950E9434213B
:104190000E943C21E0EEF0E0808181608083E8EDC8
:1041A000F0E080818F77808319BCA7EDB0E08C911F
:1041B0008E7F8C9380818F7E80831092450208953C
:1041C0000F931F93CF93DF930E9434210E943C21D1
:1041D000C8EDD0E088818F77888388818068888364
:1041E00088818F7D888319BC10924602109242020A
:1041F000109244021092430200EE10E0F801808118
:104200008B7F808388818160888342E060E080E0EA
:104210000E944420E1EEF0E080818E7F8083E2EE18
:10422000F0E0808181608083808188608083F801F4
:1042300080818E7F8083888180618883DF91CF91A8
:104240001F910F910895E8EDF0E080818F7E8083CB
:10425000E7EDF0E080818160808384E082BF81E0CF
:10426000809345020C94E020E8EDF0E080818E7FA1
:1042700080831092E20008951092DA001092E1001B
:1042800008951F920F920FB60F9211242F933F9310
:104290004F935F936F937F938F939F93AF93BF934E
:1042A000EF93FF938091E10082FF0BC08091E200C9
:1042B00082FF07C08091E1008B7F8093E1000E9424
:1042C000A4238091DA0080FF19C08091D80080FF7C
:1042D00015C08091DA008E7F8093DA008091D9003A
:1042E00080FF94C080E189BD82E189BD09B400FEF0
:1042F000FDCF81E0809346020E94BA1D8091E100CB
:1043000080FF19C08091E20080FF15C08091E2001B
:104310008E7F8093E2008091E20080618093E200D2
:104320008091D80080628093D80019BC85E080938A
:1043300046020E94CC1D8091E10084FF29C080913B
:10434000E20084FF25C080E189BD82E189BD09B416
:1043500000FEFDCF8091D8008F7D8093D8008091A2
:10436000E1008F7E8093E1008091E2008F7E809358
:10437000E2008091E20081608093E200809142023D
:10438000882309F449C084E0809346020E94CD1D31
:104390008091E10083FF29C08091E20083FF25C066
:1043A0008091E100877F8093E10082E08093460264
:1043B000109242028091E1008E7F8093E100809113
:1043C000E2008E7F8093E2008091E2008061809322
:1043D000E20042E060E080E00E9444208091F00032
:1043E00088608093F0000E94CB1DFF91EF91BF91F8
:1043F000AF919F918F917F916F915F914F913F917D
:104400002F910F900FBE0F901F90189519BC10920E
:1044100046020E94C81D72CF8091E30087FD02C052
:1044200081E0B2CF83E0B0CF1F920F920FB60F9210
:1044300011242F933F934F935F936F937F938F93A9
:104440009F93AF93BF93CF93EF93FF93C091E900F6
:10445000CF708091EC001092E9008091F000877F8E
:104460008093F00078940E9450221092E90080918D
:10447000F00088608093F000C093E900FF91EF9115
:10448000CF91BF91AF919F918F917F916F915F91EC
:104490004F913F912F910F900FBE0F901F90189545
:1044A0001F93CF93DF93CDB7DEB7AA970FB6F894DB
:1044B000DEBF0FBECDBFE7E4F2E08091F100819353
:1044C00022E0EF34F207C9F70E94E31D8091E80073
:1044D00083FF42C080914702909148029A3008F0D1
:1044E0003BC0E92FF0E0E958FD4D0C9406258122F0
:1044F000A522AC22A522AC2200232223AC227723C2
:104500008423803879F0823839F580914B028F709E
:104510008093E9008091EB0085FB882780F9109259
:10452000E90006C08091430290914402911182609B
:104530009091E800977F9093E8008093F1001092AB
:10454000F1008091E8008E772DC0282F2D7F21F477
:104550008823D1F0823059F18091E80083FF0AC0AE
:104560008091E800877F8093E8008091EB00806273
:104570008093EB00AA960FB6F894DEBF0FBECDBFB6
:10458000DF91CF911F91089580914902813021F7E9
:10459000933009F080E0809344021092E90080910A
:1045A000E800877F8093E8000E947820D5CF809133
:1045B00049028111F2CF80914B028F7069F2809392
:1045C000E9002091EB0020FFE8CF933031F4809197
:1045D000EB0080628093EB00E0CF9091EB00906164
:1045E0009093EB0021E030E001C0220F8A95EAF7BA
:1045F0002093EA001092EA008091EB008860EACFF5
:104600008111AACF109149021F778091E300807831
:10461000812B8093E3008091E800877F8093E800FE
:104620000E9478208091E80080FFFCCF8091E30019
:1046300080688093E30083E0111101C082E08093E1
:1046400046028ACF8058823008F086CF8091490296
:1046500090914A028C3D23E09207A1F583E08A8382
:104660008AE289834FB7F894DE01139620E03EE09A
:1046700051E2E32FF0E050935700E49120FF03C094
:10468000E295EF703F5FEF708E2F90E0EA30C0F060
:10469000C7968D939D932F5F243159F74FBF80911B
:1046A000E800877F8093E8006AE270E0CE0101961F
:1046B0000E94851F8091E8008B778093E8004CCFA3
:1046C000C096E7CFAE014F5F5F4F60914B020E94F3
:1046D000CB1EBC01892B09F43FCF9091E800977F56
:1046E0009093E80089819A810E94E41FE3CF80388B
:1046F00009F032CF8091E800877F8093E8008091B5
:1047000042028093F1001DCF811126CF9091490282
:10471000923008F021CF8091E800877F8093E800F5
:10472000909342020E94782080914202882331F0C7
:1047300084E0809346020E94CF1D0ECF8091E3005B
:1047400087FDF6CF81E0F5CF0895CF9380914602A3
:10475000882399F0C091E900CF708091EC0080FD32
:104760000EC080E0C82B1092E9008091E80083FD24
:104770000E945022CF70C093E900CF91089580E845
:10478000F1CF0E94C8236894B1110C945724089566
:104790000E943C2488F09F5798F0B92F9927B75171
:1047A000B0F0E1F0660F771F881F991F1AF0BA95D5
:1047B000C9F714C0B13091F00E945624B1E00895B9
:1047C0000C945624672F782F8827B85F39F0B93FAB
:1047D000CCF3869577956795B395D9F73EF4909588
:1047E0008095709561957F4F8F4F9F4F0895E89406
:1047F00009C097FB3EF490958095709561957F4F29
:104800008F4F9F4F9923A9F0F92F96E9BB279395D6
:10481000F695879577956795B795F111F8CFFAF4E6
:10482000BB0F11F460FF1BC06F5F7F4F8F4F9F4F17
:1048300016C0882311F096E911C0772321F09EE875
:10484000872F762F05C0662371F096E8862F70E0DB
:1048500060E02AF09A95660F771F881FDAF7880FB5
:104860009695879597F9089557FD9058440F551FD1
:1048700059F05F3F71F04795880F97FB991F61F0E2
:104880009F3F79F087950895121613061406551F59
:10489000F2CF4695F1DF08C0161617061806991FC5
:1048A000F1CF86957105610508940895E894BB27BA
:1048B00066277727CB0197F908950E9470240C94FE
:1048C000E1240E94D32438F00E94DA2420F09523BA
:1048D00011F00C94CA240C94D02411240C94572465
:1048E0000E94342470F3959FC1F3950F50E0551F3B
:1048F000629FF001729FBB27F00DB11D639FAA2735
:10490000F00DB11DAA1F649F6627B00DA11D661F83
:10491000829F2227B00DA11D621F739FB00DA11DA4
:10492000621F839FA00D611D221F749F3327A00D5E
:10493000611D231F849F600D211D822F762F6A2FFA
:1049400011249F5750409AF0F1F088234AF0EE0F5F
:10495000FF1FBB1F661F771F881F91505040A9F78C
:104960009E3F510580F00C94CA240C9457245F3F5D
:10497000E4F3983ED4F3869577956795B795F795C8
:10498000E7959F5FC1F7FE2B880F911D9695879540
:1049900097F9089597F99F6780E870E060E00895BF
:1049A0009FEF80EC089500240A9416161706180647
:1049B0000906089500240A94121613061406050623
:1049C0000895092E0394000C11F4882352F0BB0FB4
:1049D00040F4BF2B11F460FF04C06F5F7F4F8F4F17
:1049E0009F4F089597FB072E16F4009407D077FD8C
:1049F00009D00E940C2507FC05D03EF490958195C6
:104A00009F4F0895709561957F4F0895EE0FFF1F9A
:104A10000590F491E02D0994AA1BBB1B51E107C03E
:104A2000AA1FBB1FA617B70710F0A61BB70B881F3E
:104A3000991F5A95A9F780959095BC01CD010895CD
:104A4000F999FECF92BD81BDF89A992780B5089556
:104A5000A8E1B0E042E050E00C944825262FF999F7
:104A6000FECF92BD81BDF89A019700B4021639F0CD
:104A70001FBA20BD0FB6F894FA9AF99A0FBE08959E
:104A80000196272F0E942F250C942E25DC01CB01A7
:104A9000FC01F999FECF06C0F2BDE1BDF89A31964E
:104AA00000B40D9241505040B8F70895F894FFCFEC
:104AB000EB012808140A321ED81C6A1D451D0F1D63
:104AC000DB1C01F73635349796949567669392917F
:104AD0009033F0F1F4F5F6404D3639770B2A0BF4AC
:0C4AE0000ABB0A4E0A670A800A990A0005
:00000001FF
